:060000000A128A11122809
:10000800FE00030E83120313B4000408B5000A08A7
:10001800B6007F08B7000A128A11AC2F0A128A119B
:100028001528FB01FC0183134630840058300A125E
:100038008A15EE270A128A11831790308400BA3085
:100048000A128A15EE270A128A1183010A128A11E6
:100058000C2A83120313450883160313D90083124D
:100068000313440883160313D800DC01DD01D91BF0
:100078003E284028013041280030D5005508031D8E
:10008800462847284C285908D7005808D600A328DE
:100098005809A0005909A100A00A0319A10A2008BB
:1000A800D6002108D700A3285C08A33E84000A30A4
:1000B80083120313B8000030B900831603135708DE
:1000C80083120313BB00831603135608831203130A
:1000D800BA000A128A11E2250A128A11831203133E
:1000E8003808303E83138000013083160313DC0781
:1000F8000318DD0A0030DD070A3083120313B80045
:100108000030B90083160313570883120313BB008A
:1001180083160313560883120313BA000A128A11AE
:1001280014250A128A11831203133908831603133C
:10013800D70083120313380883160313D600560812
:100148005704031DA828A928582855080319AD28BD
:10015800AE28BA285C08A33E84002D3083138000A3
:100168000130DC070318DD0A0030DD075C08A33E18
:10017800840083138001DA01DB01FE28A330831693
:100188000313A0005A08A0025C082007A100210858
:10019800FF3E840083130008A2005A08A33E84008F
:1001A800220880065A08A33E84000008A000A33055
:1001B800A1005A08A1025C082107A2002208FF3EFC
:1001C800840020088006A330A0005A08A0025C081A
:1001D8002007A1002108FF3E84000008A2005A0859
:1001E800A33E8400220880060130DA070318DB0AE0
:1001F8000030DB07023083120313B8000030B90067
:10020800831603135D0883120313BB0083160313BD
:100218005C0883120313BA000A128A11BB230A125C
:100228008A11831603135B08803AA0008312031314
:100238003908803A831603132002031D29298312E3
:1002480003133808831603135A02031C2C292D297B
:10025800C2288316031358085904031D3429352965
:1002680038293030A300A401A33083120313BD0042
:100278000030BE000A128A115A250A128A11080093
:1002880083160313A10183120313BB1F4C294D29A5
:100298005C29B809B909BA09BB09B80A0319B90A26
:1002A8000319BA0A0319BB0A83160313A101A10A89
:1002B8008312BF1F602961297229BC09BD09BE09C3
:1002C800BF09BC0A0319BD0A0319BE0A0319BF0AEC
:1002D8000130C000400883160313A10600308316BE
:1002E8000313A5000030A4000030A3000030A200D2
:1002F800831203133B083A04390438040319852987
:100308008629E32983160313A001A00A9A2901303C
:10031800C0000310B80DB90DBA0DBB0DC00B8D2967
:100328000130C000400883160313A007831203138B
:10033800BB1F9F29A0298B2901308312C0000310FD
:1003480083160313A20DA30DA40DA50D8312031389
:10035800C00BA3293B083F02031DBC293A083E02F3
:10036800031DBC2939083D02031DBC2938083C027D
:10037800031CBF29C029D1293808BC023908031C2D
:10038800390FBD023A08031C3A0FBE023B08031C92
:100398003B0FBF028316031322140130031083128C
:1003A800BB0CBA0CB90CB80CFF3E031DD2290130A6
:1003B80083160313A002031DE229E329A02983164B
:1003C800031321080319E929EA29F529A209A30930
:1003D800A409A509A20A0319A30A0319A40A03195F
:1003E800A50A250883120313BB00831603132408E8
:1003F80083120313BA00831603132308831203130B
:10040800B90083160313220883120313B8000800E7
:100418000A128A114D230A128A110030831203131B
:10042800C4000130C300C230C2000030C1000A124B
:100438008A1124240A128A11183083120313BD006A
:100448008030BE000A128A115A250A128A118316B0
:10045800031388018312031388010A128A11FB27E8
:100468000A128A118316031386148312031386183B
:100478003E2A3F2A792AC830B8000130B900003036
:10048800BA00BB000E30BC000030BD000A128A1151
:1004980031270A128A11023083160317D4000D304F
:1004A80083120313B8000530B9000030BA00CF300A
:1004B8000A128A11A0250A128A110C308316031712
:1004C800D500C8300A128A117B240A128A11063014
:1004D80083160313E0001330DF00AD30DE00DE0BBF
:1004E800732ADF0B732AE00B732A0A128A15F62780
:1004F8000A128A11003A0319822A832A312ABA3049
:100508000A128A110B270A128A110A128A11EE2777
:100518000A128A11831603173B0883120313C500B6
:10052800831603173A0883120313C4000A128A11A8
:100538002D200A128A1120300A128A111E260A1248
:100548008A1183160317470883160313DE00DF0199
:100558005E0883120313C400831603135F08831213
:100568000313C5000A128A112D200A128A1120309D
:100578000A128A111E260A128A11BC30831203132A
:10058800BD000130BE000A128A115A250A128A11CA
:10059800312A0A128A111228831203131A08A50095
:1005A800003047020E30031946020318DC2ADD2A00
:1005B8004C2B4608493E84002508831380000130EF
:1005C800C6070318C70A0030C707003047020E30B5
:1005D80003194602031CF12AF22A4C2B0330480265
:1005E8000318F72AF82A382B2630F4000030F500D3
:1005F8004930F6000030F7000E30F8000030F900FE
:100608000A128A1157260A128A111330F0002D3067
:100618000A128A118B260A128A1170087104031DA6
:10062800162B172B382B0E30F000831203134808B3
:100638000A128A11D9270A128A11903EF400013051
:10064800F5004930F6000030F7000E30F8000030B1
:10065800F9000A128A1157260A128A110130FA0083
:100668007A0883120313C80783120313C601C7014C
:100678004930F0000030F1000030F200F3000E3095
:10068800F4000030F5000A128A1154270A128A1160
:100698000800831603138801F93083120313BC0082
:1006A8003C0883160313890500300A128A1175273E
:1006B8000A128A11823083120313BD00DD30BC0098
:1006C800BC0B642BBD0B642B03300A128A11E22683
:1006D8000A128A11213083120313BD007530BC0041
:1006E800BC0B742BBD0B742B792B03300A128A11A7
:1006F800E2260A128A11413083120313BD00ED303D
:10070800BC00BC0B852BBD0B852B8A2B03300A1232
:100718008A11E2260A128A1102300A128A11E22686
:100728000A128A1102300A128A11E2260A128A1162
:1007380008300A128A11E2260A128A1100300A12B7
:100748008A11E2260A128A110C300A128A11E2264C
:100758000A128A1100300A128A11E2260A128A1134
:1007680006300A128A11E2260A128A110800831238
:100778000313BE01B91FC12BC22BC92BB809B90974
:10078800B80A0319B90ABE01BE0ABB1FCC2BCD2B70
:10079800D62BBA09BB09BA0A0319BB0A0130BC0037
:1007A8003C08BE06BF01C001380839040319DD2B17
:1007B800DE2B152CBD01BD0AEC2B01300310B80D42
:1007C800B90DFF3E031DE22B0130BC003C08BD07FC
:1007D800B91FEF2BF02BE12B01300310BF0DC00D1B
:1007E800FF3E031DF12B39083B02031DFD2B380882
:1007F8003A02031C002C012C082C3808BA023908CC
:10080800031CBB03BB023F1401300310B90CB80C26
:10081800FF3E031D092C0130BD02031D142C152CAD
:10082800F02B3E080319192C1A2C1F2CBF09C009DC
:10083800BF0A0319C00A4008B9003F08B8000800F9
:10084800243083160313A6002608980490308312D8
:1008580003139800410883160313A6008312031399
:10086800420883160313A700831203134308831651
:100878000313A80083120313440883160313A90063
:1008880006300310A60DA70DA80DA90DFF3E031DE8
:10089800452C290883120313BB0083160313280869
:1008A80083120313BA008316031327088312031352
:1008B800B90083160313260883120313B800013006
:1008C800BF003130BE002D30BD000030BC000A1220
:1008D8008A1144210A128A11831203133808FF3E31
:1008E8008316031399008B170B178C1608008316B1
:1008F8000313B400340884000E3083178000840A80
:1009080000308000133083120313B8000530B9009B
:100918000030BA00831603133408023E0A128A1103
:10092800A0250A128A11A53083120313BC000030D7
:10093800BD0083160313340883120313BE0001306D
:10094800BF000E30C0000030C1000A128A11CE2448
:100958000A128A1183160313B501B6013508A53E9C
:100968008400831300080A128A11C3270A128A1105
:10097800013083160313B5070318B60A0030B6070B
:10098800003036020E3003193502031CCC2CCD2C56
:10099800B22C0800831203133E0883160313A30026
:1009A800831203133F0883160313A400831203134F
:1009B8003C0883160313A100831203133D08831612
:1009C8000313A200032D831603132308840083173F
:1009D800241C83130008A0000130A3070318A40AED
:1009E8000030A407210884008317221C83132008E1
:1009F80080000130A1070318A20A0030A2070130C5
:100A080083120313C0020030031CC103C102400A51
:100A1800031D122D410A031D122D132DE72C08006A
:100A280083120313BD01BE013808390403191D2DB3
:100A38001E2D552DBF01BF0A2C2D01300310B80DF6
:100A4800B90DFF3E031D222D0130BC003C08BF0735
:100A5800B91F2F2D302D212D01300310BD0DBE0DD6
:100A6800FF3E031D312D39083B02031D3D2D38087B
:100A78003A02031C402D412D482D3808BA02390886
:100A8800031CBB03BB023D1401300310B90CB80CA6
:100A9800FF3E031D492D0130BF02031D542D552D66
:100AA800302D3E08B9003D08B80008008312031332
:100AB800C201C301832D42083D07C0003E08BF00A4
:100AC8000318BF0AC21F692DBF03831203133F080F
:100AD800C1004108FF00400884000A128A11B726A5
:100AE8000A128A110A128A111E260A128A11013064
:100AF80083120313C2070318C30A0030C30742084E
:100B08003D07C0003E08BF000318BF0AC21F8D2D55
:100B1800BF03831203133F08C1004108FF004008C8
:100B280084000A128A11B7260A128A11003A031D94
:100B38009E2D9F2D5F2D080083120313BC003C08D7
:100B4800BD00C42D0130B9020030031CBA03BA023B
:100B58000130B807FF30380784000A128A11C1260D
:100B68000A128A11BB003D0884000130BD073B080A
:100B7800831780000008031DC22DC32DC42DD32D5B
:100B880039083A04031DC92DCA2DA62DD32D3D08B9
:100B98008400831780010130BB003B08BD0701308A
:100BA800B9020030031CBA03BA02390A031DE02D4A
:100BB8003A0A031DE02DE12DCB2D08008312031303
:100BC800380839040319E92DEA2D192EBD01BD0A8B
:100BD800F82D01300310B80DB90DFF3E031DEE2DA1
:100BE8000130BC003C08BD07B91FFB2DFC2DED2DC5
:100BF80039083B02031D022E38083A02031C052E51
:100C0800062E0C2E3808BA023908031CBB03BB0297
:100C180001300310B90CB80CFF3E031D0D2E013036
:100C2800BD02031D182E192EFC2D3B08B9003A08E9
:100C3800B800080083120313BC003C080F39BA003F
:100C48003C08F039BB0009153B08B9000430031013
:100C5800B90CFF3E031D2B2E39080A128A1175277D
:100C68000A128A118312031389140530831203139D
:100C7800B900B90B3D2E402E8312031389103A0890
:100C88000A128A1175270A128A118312031389140A
:100C9800053083120313B900B90B502E532E83125B
:100CA800031389100800760883120313A20077083B
:100CB800A3007408A0007508A1007C2E22088400F7
:100CC8008317231C83130008A4000130A20703180C
:100CD800A30A0030A307200884008317211C83136C
:100CE800240880000130A0070318A10A0030A107DA
:100CF8000130F8020030031CF903F902780A031DD9
:100D0800892E790A031D892E8A2E622E0800F50085
:100D1800952E0130F2007208F5070130F2007208D2
:100D2800F007700884000A128A11C1260A128A1173
:100D3800F2007508840083130008F3007208730238
:100D4800F4007408031DA92EAA2EB12E750884007C
:100D58000008031DB02EB12E8D2E7408F000F1018D
:100D6800F01BF1030800FF1BC12E83137F188317A4
:100D78000008840A0319FF0A080006308A000408DC
:100D8800840A820700342A340734043401340034D6
:100D980008340534023423340934063403347234F5
:100DA8006134733470346934003431343234333458
:100DB8004134003461346234203400348312031324
:100DC800BB00831603138801F93083120313B9009B
:100DD80039088316031389058312031309113B0885
:100DE8000A128A1175270A128A11831203138914A9
:100DF8001A3083120313BA00F730B900B90B022F67
:100E0800BA0B022F072F83120313891008008312CD
:100E18000313C20048080319122F132F302F42085A
:100E2800BC000130BD000E30B8000130C8024808CF
:100E38000A128A1195270A128A11903E8312031307
:100E4800BE000130BF000E30C0000030C1000A12E1
:100E58008A11CE240A128A11080083120313380853
:100E6800BE003908BF00452F3E08840083173F1C89
:100E780083133A0880000130BE070318BF0A003008
:100E8800BF070130BC020030031CBD03BD023C0A91
:100E9800031D522F3D0A031D522F532F382F0800D0
:100EA8007008F6007108F700662F7608840083172B
:100EB800771C8313720880000130F6070318F70ABD
:100EC8000030F7070130F4020030031CF503F50287
:100ED800740A031D732F750A031D732F742F592F5E
:100EE800080083120313B800381C7B2F7C2F7E2F39
:100EF80008167F2F0812B81C822F832F852F88167B
:100F0800862F8812381D892F8A2F8C2F08178D2F2E
:100F18000813B81D902F912F932F8817942F88139B
:100F2800080083120313BB00BA013B1C9C2F9D2FA2
:100F3800A12F3808B9003908BA070310B80D0310F3
:100F4800BB0C3B08031DA92FAA2F992F3A080800AC
:100F58008C1EAF2FB02FB82F0A128A11D0220A1276
:100F68008A11831203138C123708FF0036088A008F
:100F780035088400340E8300FE0E7E0E09008312AD
:100F88000313B900BF30B800380883160313870568
:100F9800871783120C1ED12FD22FCD2FEF30B80018
:100FA80038088C05390899000800F300F201731C11
:100FB800DE2FDF2FE32F7008F1007108F20703100E
:100FC800F00D0310F30C7308031DEB2FEC2FDB2F30
:100FD8007208080000300A128A11E2260A128A11E1
:100FE80001300A128A11E2260A128A110800080042
:101FDC0064008001840A0406031900340406EF2F00
:101FEC00831203134808031DFC2FFE2F0130FF2F13
:041FFC0000300800A9
:08400000FF3FFF3FFF3FFF3FC0
:02400E00F23F7F
:00000001FF
