:060000000A128A1110280B
:10000800FE00030E83120313A5000408A6000A08C5
:10001800A7000A128A11E02E0A128A1113288312E5
:100028000313C901CA01CB01CC01CD018313DB3015
:100038008400EA300A128A1117270A128A118317D4
:1000480090308400BA300A128A1117270A128A11CE
:1000580083010A128A11122A8312031335088316A0
:100068000313D60083120313340883160313D50031
:10007800D901DA01D61B4128432801304428003031
:10008800D2005208031D49284A284F285608D40090
:100098005508D300B228550983120313B6008316F6
:1000A8000313560983120313B700B60A0319B70AD4
:1000B800360883160313D3008312031337088316F5
:1000C8000313D400B2285908A03E84000A308312D2
:1000D8000313A8000030A9008316031354088312E1
:1000E8000313AB0083160313530883120313AA00E8
:1000F8000A128A110E250A128A118312031328087C
:10010800303E83138000013083160313D907031888
:10011800DA0A0030DA070A3083120313A800003025
:10012800A90083160313540883120313AB00831624
:100138000313530883120313AA000A128A11032413
:100148000A128A1183120313290883160313D40091
:1001580083120313280883160313D3005308540487
:10016800031DB728B828672852080319BC28BD28DA
:10017800C9285908A03E84002D308313800001301F
:10018800D9070318DA0A0030DA075908A03E8400B4
:1001980083138001D701D8013329A03083120313B8
:1001A800B60083160313570883120313B602831687
:1001B80003135908831203133607B7003708FF3EA5
:1001C800840083130008B800831603135708A03E61
:1001D8008400831203133808800683160313570814
:1001E800A03E8400000883120313B600A030B700B5
:1001F80083160313570883120313B70283160313D6
:100208005908831203133707B8003808FF3E8400E3
:1002180036088006A030B6008316031357088312E9
:100228000313B60283160313590883120313360700
:10023800B7003708FF3E84000008B8008316031390
:100248005708A03E84008312031338088006013043
:1002580083160313D7070318D80A0030D8070230CB
:1002680083120313A8000030A900831603135A0849
:1002780083120313AB008316031359088312031365
:10028800AA000A128A1105230A128A118316031377
:100298005808803A83120313B6002908803A3602B8
:1002A800031D5A292808831603135702031C5D29C6
:1002B8005E29D1288316031355085604031D6529A2
:1002C800662969293030A000A101A03083120313E8
:1002D800AD000030AE000A128A1149240A128A11B0
:1002E800080083120313B201AB1F7B297C298929DB
:1002F800A809A909AA09AB09A80A0319A90A03198F
:10030800AA0A0319AB0AB201B20AAF1F8C298D29B8
:100318009C29AC09AD09AE09AF09AC0A0319AD0AAD
:100328000319AE0A0319AF0A0130B0003008B2064B
:100338000030B6000030B5000030B4000030B30023
:100348002B082A04290428040319AB29AC29F92904
:10035800B101B10ABC290130B0000310A80DA90DE4
:10036800AA0DAB0DB00BB1290130B0003008B107B0
:10037800AB1FBF29C029AF290130B0000310B30D4E
:10038800B40DB50DB60DB00BC2292B082F02031DF5
:10039800D7292A082E02031DD72929082D02031D53
:1003A800D72928082C02031CDA29DB29EA2928087E
:1003B800AC022908031C290FAD022A08031C2A0FC6
:1003C800AE022B08031C2B0FAF02331401300310AD
:1003D800AB0CAA0CA90CA80CFF3E031DEB2901309D
:1003E800B102031DF829F929C02932080319FD298A
:1003F800FE29092AB309B409B509B609B30A0319CC
:10040800B40A0319B50A0319B60A3608AB00350849
:10041800AA003408A9003308A80008000A128A11A3
:1004280097220A128A11003083120313BA0001308E
:10043800B900C230B8000030B7000A128A11D124BE
:100448000A128A11183083120313AD008030AE00EF
:100458000A128A1149240A128A1183160313880181
:100468008312031388010A128A1123270A128A1198
:10047800003083120313A800A9000E30AA00003030
:10048800AB00CA300A128A1195260A128A11023064
:1004980083160317D6000D3083120313A800053006
:1004A800A9000030AA00D1300A128A118F240A123A
:1004B8008A110C3083160317D700CA300A128A1122
:1004C8006E230A128A110A128A111F270A128A1128
:1004D800003A0319702A712A372ABC300A128A1185
:1004E80054260A128A110A128A110A270A128A1134
:1004F800013083160317BA070318BB0A0030BB077D
:100508003B0883120313B500831603173A088312B6
:100518000313B4000A128A1130200A128A11372AEA
:100528000A128A111028831603138801F9308312DE
:100538000313AC002C0883160313890500300A1234
:100548008A1175260A128A11823083120313AD00AC
:10055800DD30AC00AC0BAE2AAD0BAE2A03300A126C
:100568008A112B260A128A11213083120313AD0037
:100578007530AC00AC0BBE2AAD0BBE2AC32A0330C3
:100588000A128A112B260A128A1141308312031388
:10059800AD00ED30AC00AC0BCF2AAD0BCF2AD42A7E
:1005A80003300A128A112B260A128A1102300A1203
:1005B8008A112B260A128A1102300A128A112B2656
:1005C8000A128A1108300A128A112B260A128A1175
:1005D80000300A128A112B260A128A110C300A12CC
:1005E8008A112B260A128A1100300A128A112B2628
:1005F8000A128A1106300A128A112B260A128A1147
:10060800080083120313AE01A91F0B2B0C2B132B0D
:10061800A809A909A80A0319A90AAE01AE0AAB1FBD
:10062800162B172B202BAA09AB09AA0A0319AB0A08
:100638000130AC002C08AE06AF01B001280829042F
:100648000319272B282B5F2BAD01AD0A362B013060
:100658000310A80DA90DFF3E031D2C2B0130AC0083
:100668002C08AD07A91F392B3A2B2B2B013003106F
:10067800AF0DB00DFF3E031D3B2B29082B02031DB8
:10068800472B28082A02031C4A2B4B2B522B2808DD
:10069800AA022908031CAB03AB022F140130031074
:1006A800A90CA80CFF3E031D532B0130AD02031DFE
:1006B8005E2B5F2B3A2B2E080319632B642B692BB7
:1006C800AF09B009AF0A0319B00A3008A9002F080A
:1006D800A800080083120313C600460884000E30E1
:1006E80083178000840A003080001330A80005308A
:1006F800A9000030AA004608023E0A128A118F2477
:100708000A128A11373083120313AC000030AD008F
:100718004608AE000130AF000E30B0000030B10026
:100728000A128A1183250A128A1183120313C70138
:10073800C8014708373E8400831300080A128A114B
:10074800CA260A128A11013083120313C707031835
:10075800C80A0030C807003048020E3003194702A3
:10076800031CB72BB82B9D2B0800831203131A0800
:10077800FB0000304A020E30031949020318C52B4A
:10078800C62B022C4908DB3E84007B0883138000BB
:100798000130C9070318CA0A0030CA0700304A02E4
:1007A8000E3003194902031CDA2BDB2B022C033011
:1007B8004C020318E02BE12BFE2B0E30F000013029
:1007C800FA007A08CC074C080A128A11F5260A1290
:1007D8008A11903EF4000130F500DB30F60000305D
:1007E800F7000E30F8000030F9000A128A11B72518
:1007F8000A128A1183120313C901CA01080083125D
:100808000313AE01AF012808290403190C2C0D2C81
:10081800442CAD01AD0A1B2C01300310A80DA90D05
:10082800FF3E031D112C0130AC002C08AD07A91F99
:100838001E2C1F2C102C01300310AE0DAF0DFF3EE7
:10084800031D202C29082B02031D2C2C28082A0202
:10085800031C2F2C302C372C2808AA022908031C2B
:10086800AB03AB022E1401300310A90CA80CFF3EF9
:10087800031D382C0130AD02031D432C442C1F2CC2
:100888002F08A9002E08A800080083120313B2013C
:10089800B301722C32082D07B0002E08AF000318E0
:1008A800AF0AB21F582CAF03831203132F08B100ED
:1008B8003108FF00300884000A128A1100260A1243
:1008C8008A110A128A114A250A128A1101308312E2
:1008D8000313B2070318B30A0030B30732082D0711
:1008E800B0002E08AF000318AF0AB21F7C2CAF036C
:1008F800831203132F08B1003108FF003008840069
:100908000A128A1100260A128A11003A031D8D2C38
:100918008E2C4E2C080083120313AC002C08AD005B
:10092800B32C0130A9020030031CAA03AA0201302B
:10093800A807FF30280784000A128A110A260A121B
:100948008A11AB002D0884000130AD072B088317EE
:1009580080000008031DB12CB22CB32CC22C29082E
:100968002A04031DB82CB92C952CC22C2D08840000
:10097800831780010130AB002B08AD070130A902B5
:100988000030031CAA03AA02290A031DCF2C2A0A35
:10099800031DCF2CD02CBA2C08002430831203134B
:1009A800BB003B088316031398049030831203138B
:1009B80098003708BB003808BC003908BD003A0861
:1009C800BE0006300310BB0DBC0DBD0DBE0DFF3EB5
:1009D800031DE62C3E08AB003D08AA003C08A90010
:1009E8003B08A8000130AF003130AE002D30AD001B
:1009F8000030AC000A128A1175210A128A1183127A
:100A080003132808FF3E8316031399008B170B174F
:100A18008C16080083120313280829040319152DBE
:100A2800162D452DAD01AD0A242D01300310A80D5A
:100A3800A90DFF3E031D1A2D0130AC002C08AD078F
:100A4800A91F272D282D192D29082B02031D2E2D0E
:100A580028082A02031C312D322D382D2808AA0215
:100A68002908031CAB03AB0201300310A90CA80C26
:100A7800FF3E031D392D0130AD02031D442D452DC8
:100A8800282D2B08A9002A08A800080083120313A0
:100A9800AC002C080F39AA002C08F039AB00091556
:100AA8002B08A90004300310A90CFF3E031D572D85
:100AB80029080A128A1175260A128A118312031349
:100AC8008914053083120313A900A90B692D6C2D15
:100AD8008312031389102A080A128A1175260A122A
:100AE8008A11831203138914053083120313A90092
:100AF800A90B7C2D7F2D8312031389100800831204
:100B080003132E08B5002F08B6002C08B3002D08D3
:100B1800B400A82D350884008317361C83130008F9
:100B2800B2000130B5070318B60A0030B60733081B
:100B380084008317341C8313320880000130B30704
:100B48000318B40A0030B4070130B0020030031CA7
:100B5800B103B102300A031DB52D310A031DB52DAD
:100B6800B62D8E2D0800760883120313A30077088C
:100B7800A4007408A1007508A200DC2D23088400D5
:100B88008317241C83130008A0000130A30703184F
:100B9800A40A0030A407210884008317221C8313A9
:100BA800200880000130A1070318A20A0030A2071C
:100BB8000130F8020030031CF903F902780A031D1A
:0E0BC800E92D790A031DE92DEA2DC22D080042
:100C0000FF1B0A2E83137F1883170008840A031919
:100C1000FF0A080006308A000408840A82070034AC
:100C20002A340734043401340034083405340234DF
:100C30002334093406340334723461347334703429
:100C40006934003431343234333441340034613463
:100C500062342034003483120313AB008316031371
:100C60008801F93083120313A9002908831603139E
:100C700089058312031309112B080A128A1175269C
:100C80000A128A118312031389141A308312031370
:100C9000AA00F730A900A90B4B2EAA0B4B2E502E01
:100CA000831203138910080083120313B700370857
:100CB000AC000130AD000E30A8000130CC024C0871
:100CC0000A128A11B3260A128A11903E8312031364
:100CD000AE000130AF000E30B0000030B1000A129B
:100CE0008A1183250A128A11080083120313A800AF
:100CF000281C7B2E7C2E7E2E08167F2E0812A81C08
:100D0000822E832E852E8816862E8812281D892EE7
:100D10008A2E8C2E08178D2E0813A81D902E912E2A
:100D2000932E8817942E8813080083120313AD00A6
:100D30002D08AE00A42E2E088400280883178000FA
:100D40000130AC002C08AE070130AA020030031CB1
:100D5000AB03AB022A0A031DB12E2B0A031DB12ED1
:100D6000B22E9B2E080083120313AB00AA012B1C8A
:100D7000BA2EBB2EBF2E2808A9002908AA070310E7
:100D8000A80D0310AB0C2B08031DC72EC82EB72EC1
:100D90002A08080083120313A900BF30A8002808FE
:100DA000831603138705871783120C1ED82ED92E9E
:100DB000D42EEF30A80028088C05290899000800D7
:100DC0008C1EE32EE42EEC2E0A128A11B9230A128D
:100DD0008A11831203138C1227088A0026088400C4
:100DE000250E8300FE0E7E0E0900F300F201731C37
:100DF000FA2EFB2EFF2E7008F1007108F207031087
:100E0000F00D0310F30C7308031D072F082FF72EA6
:100E10007208080000300A128A112B260A128A1161
:100E200001300A128A112B260A128A110800640066
:100E30008001840A0406031900340406182F831263
:080E400003134C080800080030
:08400000FF3FFF3FFF3FFF3FC0
:02400E00F23F7F
:00000001FF
